{
  "transactions": [
    {
      "hash": "0x9270cf29ba9ff3cad1626a6c941d403c4ce0e1a605f4dedf4dcb69fbc11b5243",
      "transactionType": "CALL",
      "contractName": null,
      "contractAddress": "0xF9ae0aE81827c22dBB1Ef958A5EAec7f47040603",
      "function": "mintProject(string,string,uint256)",
      "arguments": [
        "\"PROJECT1\"",
        "\"PRJ1\"",
        "100000000000000000000"
      ],
      "transaction": {
        "type": "0x00",
        "from": "0x000ef5f21dc574226a06c76aae7060642a30eb74",
        "to": "0xf9ae0ae81827c22dbb1ef958a5eaec7f47040603",
        "gas": "0x1259c7",
        "value": "0x0",
        "data": "0xe253f039000000000000000000000000000000000000000000000000000000000000006000000000000000000000000000000000000000000000000000000000000000a00000000000000000000000000000000000000000000000056bc75e2d63100000000000000000000000000000000000000000000000000000000000000000000850524f4a45435431000000000000000000000000000000000000000000000000000000000000000000000000000000000000000000000000000000000000000450524a3100000000000000000000000000000000000000000000000000000000",
        "nonce": "0x12"
      },
      "additionalContracts": [
        {
          "transactionType": "CREATE2",
          "address": "0xC9600FcEde31AADC21d146A3B2ea9C875c804b7F",
          "initCode": "0x3d60ad80600a3d3981f3363d3d373d3d3d363d7324730c8387c11e6031f692bf0b14000d932717665af43d82803e903d91602b57fd5bf300000000000000000000000000000000000000000000000000000000000000000000000000000000000000000000000000000000000000000000000000000033000000000000000000000000f9ae0ae81827c22dbb1ef958a5eaec7f470406030000000000000000000000000000000000000000000000000000000000000000"
        },
        {
          "transactionType": "CREATE",
          "address": "0x330Bb2759350bF1C2EC518E34C47b4F30c68Ae3A",
          "initCode": "0x60a06040526040516105e53803806105e583398101604081905261002291610387565b61002c828261003e565b506001600160a01b031660805261047e565b610047826100fe565b6040516001600160a01b038316907f1cf3b03a6cf19fa2baba4df148e9dcabedea7f8a5c07840e207e5c089be95d3e90600090a28051156100f2576100ed826001600160a01b0316635c60da1b6040518163ffffffff1660e01b8152600401602060405180830381865afa1580156100c3573d6000803e3d6000fd5b505050506040513d601f19601f820116820180604052508101906100e79190610447565b82610211565b505050565b6100fa610288565b5050565b806001600160a01b03163b60000361013957604051631933b43b60e21b81526001600160a01b03821660048201526024015b60405180910390fd5b807fa3f0ad74e5423aebfd80d3ef4346578335a9a72aeaee59ff6cb3582b35133d5080546001600160a01b0319166001600160a01b0392831617905560408051635c60da1b60e01b81529051600092841691635c60da1b9160048083019260209291908290030181865afa1580156101b5573d6000803e3d6000fd5b505050506040513d601f19601f820116820180604052508101906101d99190610447565b9050806001600160a01b03163b6000036100fa57604051634c9c8ce360e01b81526001600160a01b0382166004820152602401610130565b6060600080846001600160a01b03168460405161022e9190610462565b600060405180830381855af49150503d8060008114610269576040519150601f19603f3d011682016040523d82523d6000602084013e61026e565b606091505b50909250905061027f8583836102a9565b95945050505050565b34156102a75760405163b398979f60e01b815260040160405180910390fd5b565b6060826102be576102b982610308565b610301565b81511580156102d557506001600160a01b0384163b155b156102fe57604051639996b31560e01b81526001600160a01b0385166004820152602401610130565b50805b9392505050565b8051156103185780518082602001fd5b604051630a12f52160e11b815260040160405180910390fd5b80516001600160a01b038116811461034857600080fd5b919050565b634e487b7160e01b600052604160045260246000fd5b60005b8381101561037e578181015183820152602001610366565b50506000910152565b6000806040838503121561039a57600080fd5b6103a383610331565b60208401519092506001600160401b03808211156103c057600080fd5b818501915085601f8301126103d457600080fd5b8151818111156103e6576103e661034d565b604051601f8201601f19908116603f0116810190838211818310171561040e5761040e61034d565b8160405282815288602084870101111561042757600080fd5b610438836020830160208801610363565b80955050505050509250929050565b60006020828403121561045957600080fd5b61030182610331565b60008251610474818460208701610363565b9190910192915050565b60805161014d61049860003960006024015261014d6000f3fe608060405261000c61000e565b005b61001e610019610020565b6100b6565b565b60007f000000000000000000000000000000000000000000000000000000000000000073ffffffffffffffffffffffffffffffffffffffff16635c60da1b6040518163ffffffff1660e01b8152600401602060405180830381865afa15801561008d573d6000803e3d6000fd5b505050506040513d601f19601f820116820180604052508101906100b191906100da565b905090565b3660008037600080366000845af43d6000803e8080156100d5573d6000f35b3d6000fd5b6000602082840312156100ec57600080fd5b815173ffffffffffffffffffffffffffffffffffffffff8116811461011057600080fd5b939250505056fea2646970667358221220eda9285a15ab1794c7c841309fd0880e86b270ecc6a991e031826bddbf23732264736f6c634300081700330000000000000000000000009f0a79c5a1fb5f7e2221ddda85362f97ff847f6600000000000000000000000000000000000000000000000000000000000000400000000000000000000000000000000000000000000000000000000000000144db0e454400000000000000000000000000000000000000000000000000000000000000c0000000000000000000000000000000000000000000000000000000000000010000000000000000000000000026f1b67f7f49626e998d5346db0ddf5117bc2753000000000000000000000000f9ae0ae81827c22dbb1ef958a5eaec7f470406030000000000000000000000000000000000000000000000056bc75e2d63100000000000000000000000000000c9600fcede31aadc21d146a3b2ea9c875c804b7f000000000000000000000000000000000000000000000000000000000000000850524f4a45435431000000000000000000000000000000000000000000000000000000000000000000000000000000000000000000000000000000000000000450524a310000000000000000000000000000000000000000000000000000000000000000000000000000000000000000000000000000000000000000"
        }
      ],
      "isFixedGasLimit": false
    },
    {
      "hash": "0x840d292f61ea6d891b695e1e905c816e579d20a07b00b41d93b66cee457c4595",
      "transactionType": "CALL",
      "contractName": null,
      "contractAddress": "0xF9ae0aE81827c22dBB1Ef958A5EAec7f47040603",
      "function": "setRentalAvailable(uint256)",
      "arguments": [
        "0"
      ],
      "transaction": {
        "type": "0x00",
        "from": "0x000ef5f21dc574226a06c76aae7060642a30eb74",
        "to": "0xf9ae0ae81827c22dbb1ef958a5eaec7f47040603",
        "gas": "0x149a0",
        "value": "0x0",
        "data": "0xfa24e2f50000000000000000000000000000000000000000000000000000000000000000",
        "nonce": "0x13"
      },
      "additionalContracts": [],
      "isFixedGasLimit": false
    }
  ],
  "receipts": [
    {
      "transactionHash": "0x9270cf29ba9ff3cad1626a6c941d403c4ce0e1a605f4dedf4dcb69fbc11b5243",
      "transactionIndex": "0x2",
      "blockHash": "0xd39d0c12dcaa0e5698a0c4e659ceca581307e026005efb3ac3a4c839e2ec3f77",
      "blockNumber": "0x399d541",
      "from": "0x000ef5F21dC574226A06C76AAE7060642A30eB74",
      "to": "0xF9ae0aE81827c22dBB1Ef958A5EAec7f47040603",
      "cumulativeGasUsed": "0xdfc2e",
      "gasUsed": "0xca448",
      "contractAddress": null,
      "logs": [
        {
          "address": "0xF9ae0aE81827c22dBB1Ef958A5EAec7f47040603",
          "topics": [
            "0xddf252ad1be2c89b69c2b068fc378daa952ba7f163c4a11628f55a4df523b3ef",
            "0x0000000000000000000000000000000000000000000000000000000000000000",
            "0x000000000000000000000000f9ae0ae81827c22dbb1ef958a5eaec7f47040603",
            "0x0000000000000000000000000000000000000000000000000000000000000000"
          ],
          "data": "0x",
          "blockHash": "0xd39d0c12dcaa0e5698a0c4e659ceca581307e026005efb3ac3a4c839e2ec3f77",
          "blockNumber": "0x399d541",
          "transactionHash": "0x9270cf29ba9ff3cad1626a6c941d403c4ce0e1a605f4dedf4dcb69fbc11b5243",
          "transactionIndex": "0x2",
          "logIndex": "0x2",
          "removed": false
        },
        {
          "address": "0xC9600FcEde31AADC21d146A3B2ea9C875c804b7F",
          "topics": [
            "0xddf252ad1be2c89b69c2b068fc378daa952ba7f163c4a11628f55a4df523b3ef",
            "0x0000000000000000000000000000000000000000000000000000000000000000",
            "0x000000000000000000000000c9600fcede31aadc21d146a3b2ea9c875c804b7f"
          ],
          "data": "0x0000000000000000000000000000000000000000000000000000000000000008",
          "blockHash": "0xd39d0c12dcaa0e5698a0c4e659ceca581307e026005efb3ac3a4c839e2ec3f77",
          "blockNumber": "0x399d541",
          "transactionHash": "0x9270cf29ba9ff3cad1626a6c941d403c4ce0e1a605f4dedf4dcb69fbc11b5243",
          "transactionIndex": "0x2",
          "logIndex": "0x3",
          "removed": false
        },
        {
          "address": "0xC9600FcEde31AADC21d146A3B2ea9C875c804b7F",
          "topics": [
            "0xc7f505b2f371ae2175ee4913f4499e1f2633a7b5936321eed1cdaeb6115181d2"
          ],
          "data": "0x0000000000000000000000000000000000000000000000000000000000000001",
          "blockHash": "0xd39d0c12dcaa0e5698a0c4e659ceca581307e026005efb3ac3a4c839e2ec3f77",
          "blockNumber": "0x399d541",
          "transactionHash": "0x9270cf29ba9ff3cad1626a6c941d403c4ce0e1a605f4dedf4dcb69fbc11b5243",
          "transactionIndex": "0x2",
          "logIndex": "0x4",
          "removed": false
        },
        {
          "address": "0x22599F1d29F97F66ECdAAfD03dc8bE60ac45575D",
          "topics": [
            "0x07fba7bba1191da7ee1155dcfa0030701c9c9a9cc34a93b991fc6fd0c9268d8f"
          ],
          "data": "0x000000000000000000000000c9600fcede31aadc21d146a3b2ea9c875c804b7f00000000000000000000000024730c8387c11e6031f692bf0b14000d932717660000000000000000000000000000000000000000000000000000000000000033000000000000000000000000f9ae0ae81827c22dbb1ef958a5eaec7f4704060300000000000000000000000000000000000000000000000000000000000000000000000000000000000000000000000000000000000000000000000000000000",
          "blockHash": "0xd39d0c12dcaa0e5698a0c4e659ceca581307e026005efb3ac3a4c839e2ec3f77",
          "blockNumber": "0x399d541",
          "transactionHash": "0x9270cf29ba9ff3cad1626a6c941d403c4ce0e1a605f4dedf4dcb69fbc11b5243",
          "transactionIndex": "0x2",
          "logIndex": "0x5",
          "removed": false
        },
        {
          "address": "0x330Bb2759350bF1C2EC518E34C47b4F30c68Ae3A",
          "topics": [
            "0x1cf3b03a6cf19fa2baba4df148e9dcabedea7f8a5c07840e207e5c089be95d3e",
            "0x0000000000000000000000009f0a79c5a1fb5f7e2221ddda85362f97ff847f66"
          ],
          "data": "0x",
          "blockHash": "0xd39d0c12dcaa0e5698a0c4e659ceca581307e026005efb3ac3a4c839e2ec3f77",
          "blockNumber": "0x399d541",
          "transactionHash": "0x9270cf29ba9ff3cad1626a6c941d403c4ce0e1a605f4dedf4dcb69fbc11b5243",
          "transactionIndex": "0x2",
          "logIndex": "0x6",
          "removed": false
        },
        {
          "address": "0x330Bb2759350bF1C2EC518E34C47b4F30c68Ae3A",
          "topics": [
            "0xc7f505b2f371ae2175ee4913f4499e1f2633a7b5936321eed1cdaeb6115181d2"
          ],
          "data": "0x0000000000000000000000000000000000000000000000000000000000000001",
          "blockHash": "0xd39d0c12dcaa0e5698a0c4e659ceca581307e026005efb3ac3a4c839e2ec3f77",
          "blockNumber": "0x399d541",
          "transactionHash": "0x9270cf29ba9ff3cad1626a6c941d403c4ce0e1a605f4dedf4dcb69fbc11b5243",
          "transactionIndex": "0x2",
          "logIndex": "0x7",
          "removed": false
        },
        {
          "address": "0xF9ae0aE81827c22dBB1Ef958A5EAec7f47040603",
          "topics": [
            "0x9850c01544aa89bb27d98e03fbe924a7d62b85f90dfb82ad4cdff781c9a0fd76",
            "0x0000000000000000000000000000000000000000000000000000000000000000",
            "0x000000000000000000000000c9600fcede31aadc21d146a3b2ea9c875c804b7f",
            "0x000000000000000000000000330bb2759350bf1c2ec518e34c47b4f30c68ae3a"
          ],
          "data": "0x",
          "blockHash": "0xd39d0c12dcaa0e5698a0c4e659ceca581307e026005efb3ac3a4c839e2ec3f77",
          "blockNumber": "0x399d541",
          "transactionHash": "0x9270cf29ba9ff3cad1626a6c941d403c4ce0e1a605f4dedf4dcb69fbc11b5243",
          "transactionIndex": "0x2",
          "logIndex": "0x8",
          "removed": false
        }
      ],
      "status": "0x1",
      "logsBloom": "0x00000000000000000000000000000000000000000000000000000000000008000000000000000020000000000000000000000000100000020000001000000012000000000000000000000008001000000000004000000000000004000000000000000000020000000000000000200800000000000000000000000010000000000000000000001000000900040000080000000000000080000000000020005000000000000000400000000000000000000000000080000000000000000000000000000002000000000004000000822000000000000004000000800000000020002000001000000000000000000000100000000040000000000000002000010000"
    },
    {
      "transactionHash": "0x840d292f61ea6d891b695e1e905c816e579d20a07b00b41d93b66cee457c4595",
      "transactionIndex": "0x3",
      "blockHash": "0xd39d0c12dcaa0e5698a0c4e659ceca581307e026005efb3ac3a4c839e2ec3f77",
      "blockNumber": "0x399d541",
      "from": "0x000ef5F21dC574226A06C76AAE7060642A30eB74",
      "to": "0xF9ae0aE81827c22dBB1Ef958A5EAec7f47040603",
      "cumulativeGasUsed": "0xebe53",
      "gasUsed": "0xc225",
      "contractAddress": null,
      "logs": [],
      "status": "0x1",
      "logsBloom": "0x00000000000000000000000000000000000000000000000000000000000000000000000000000000000000000000000000000000000000000000000000000000000000000000000000000000000000000000000000000000000000000000000000000000000000000000000000000000000000000000000000000000000000000000000000000000000000000000000000000000000000000000000000000000000000000000000000000000000000000000000000000000000000000000000000000000000000000000000000000000000000000000000000000000000000000000000000000000000000000000000000000000000000000000000000000000"
    }
  ],
  "libraries": [],
  "pending": [],
  "returns": {},
  "timestamp": 1709362790,
  "chain": 51,
  "multi": false,
  "commit": "f8400e2"
}