{
  "transactions": [
    {
      "hash": "0x671766f1f0398d4c91a357bb8dfe5e8c0cb9eb5606716f1a2c042351e23650ef",
      "transactionType": "CALL",
      "contractName": null,
      "contractAddress": "0x82D58B15A6aDa9BbaAaD253CdfC5c97b5890811F",
      "function": "mintProject(string,string,uint256,uint256,uint256,uint256)",
      "arguments": [
        "\"PROJECT2\"",
        "\"PRJ2\"",
        "100000000000000000000",
        "20000000000000000000",
        "500000000000000000000000",
        "1711972988"
      ],
      "transaction": {
        "type": "0x00",
        "from": "0x000ef5f21dc574226a06c76aae7060642a30eb74",
        "to": "0x82d58b15a6ada9bbaaad253cdfc5c97b5890811f",
        "gas": "0x27c447",
        "value": "0x0",
        "data": "0xc4a261d900000000000000000000000000000000000000000000000000000000000000c000000000000000000000000000000000000000000000000000000000000001000000000000000000000000000000000000000000000000056bc75e2d63100000000000000000000000000000000000000000000000000001158e460913d000000000000000000000000000000000000000000000000069e10de76676d080000000000000000000000000000000000000000000000000000000000000660aa27c000000000000000000000000000000000000000000000000000000000000000850524f4a45435432000000000000000000000000000000000000000000000000000000000000000000000000000000000000000000000000000000000000000450524a3200000000000000000000000000000000000000000000000000000000",
        "nonce": "0x1c"
      },
      "additionalContracts": [
        {
          "transactionType": "CREATE2",
          "address": "0x0cE63fF13f55d18d27E4558bDf6144EfFaf5803E",
          "initCode": "0x3d60ad80600a3d3981f3363d3d373d3d3d363d734caf59c33b4162acd26e6c910b8849295df902785af43d82803e903d91602b57fd5bf30000000000000000000000000000000000000000000000000000000000000000000000000000000000000000000000000000000000000000000000000000003300000000000000000000000082d58b15a6ada9bbaaad253cdfc5c97b5890811f0000000000000000000000000000000000000000000000000000000000000000"
        },
        {
          "transactionType": "CREATE",
          "address": "0x629540038c8f7b46356c442D22E0EAF96fEC151c",
          "initCode": "0x60a06040526040516105e53803806105e583398101604081905261002291610387565b61002c828261003e565b506001600160a01b031660805261047e565b610047826100fe565b6040516001600160a01b038316907f1cf3b03a6cf19fa2baba4df148e9dcabedea7f8a5c07840e207e5c089be95d3e90600090a28051156100f2576100ed826001600160a01b0316635c60da1b6040518163ffffffff1660e01b8152600401602060405180830381865afa1580156100c3573d6000803e3d6000fd5b505050506040513d601f19601f820116820180604052508101906100e79190610447565b82610211565b505050565b6100fa610288565b5050565b806001600160a01b03163b60000361013957604051631933b43b60e21b81526001600160a01b03821660048201526024015b60405180910390fd5b807fa3f0ad74e5423aebfd80d3ef4346578335a9a72aeaee59ff6cb3582b35133d5080546001600160a01b0319166001600160a01b0392831617905560408051635c60da1b60e01b81529051600092841691635c60da1b9160048083019260209291908290030181865afa1580156101b5573d6000803e3d6000fd5b505050506040513d601f19601f820116820180604052508101906101d99190610447565b9050806001600160a01b03163b6000036100fa57604051634c9c8ce360e01b81526001600160a01b0382166004820152602401610130565b6060600080846001600160a01b03168460405161022e9190610462565b600060405180830381855af49150503d8060008114610269576040519150601f19603f3d011682016040523d82523d6000602084013e61026e565b606091505b50909250905061027f8583836102a9565b95945050505050565b34156102a75760405163b398979f60e01b815260040160405180910390fd5b565b6060826102be576102b982610308565b610301565b81511580156102d557506001600160a01b0384163b155b156102fe57604051639996b31560e01b81526001600160a01b0385166004820152602401610130565b50805b9392505050565b8051156103185780518082602001fd5b604051630a12f52160e11b815260040160405180910390fd5b80516001600160a01b038116811461034857600080fd5b919050565b634e487b7160e01b600052604160045260246000fd5b60005b8381101561037e578181015183820152602001610366565b50506000910152565b6000806040838503121561039a57600080fd5b6103a383610331565b60208401519092506001600160401b03808211156103c057600080fd5b818501915085601f8301126103d457600080fd5b8151818111156103e6576103e661034d565b604051601f8201601f19908116603f0116810190838211818310171561040e5761040e61034d565b8160405282815288602084870101111561042757600080fd5b610438836020830160208801610363565b80955050505050509250929050565b60006020828403121561045957600080fd5b61030182610331565b60008251610474818460208701610363565b9190910192915050565b60805161014d61049860003960006024015261014d6000f3fe608060405261000c61000e565b005b61001e610019610020565b6100b6565b565b60007f000000000000000000000000000000000000000000000000000000000000000073ffffffffffffffffffffffffffffffffffffffff16635c60da1b6040518163ffffffff1660e01b8152600401602060405180830381865afa15801561008d573d6000803e3d6000fd5b505050506040513d601f19601f820116820180604052508101906100b191906100da565b905090565b3660008037600080366000845af43d6000803e8080156100d5573d6000f35b3d6000fd5b6000602082840312156100ec57600080fd5b815173ffffffffffffffffffffffffffffffffffffffff8116811461011057600080fd5b939250505056fea2646970667358221220eda9285a15ab1794c7c841309fd0880e86b270ecc6a991e031826bddbf23732264736f6c6343000817003300000000000000000000000015906379703940bc51a5881ad1a5fc481ebc8bb100000000000000000000000000000000000000000000000000000000000000400000000000000000000000000000000000000000000000000000000000000144db0e454400000000000000000000000000000000000000000000000000000000000000c00000000000000000000000000000000000000000000000000000000000000100000000000000000000000000ba397efef3914ab025f7f5706fade61f240a9ebc00000000000000000000000082d58b15a6ada9bbaaad253cdfc5c97b5890811f0000000000000000000000000000000000000000000000056bc75e2d631000000000000000000000000000000ce63ff13f55d18d27e4558bdf6144effaf5803e000000000000000000000000000000000000000000000000000000000000000850524f4a45435432000000000000000000000000000000000000000000000000000000000000000000000000000000000000000000000000000000000000000450524a320000000000000000000000000000000000000000000000000000000000000000000000000000000000000000000000000000000000000000"
        }
      ],
      "isFixedGasLimit": false
    },
    {
      "hash": "0x5f3450347033f27fde2b5518018924561a96a160ee851e3325e2040ec367a154",
      "transactionType": "CALL",
      "contractName": null,
      "contractAddress": "0x82D58B15A6aDa9BbaAaD253CdfC5c97b5890811F",
      "function": "setRentalAvailable(uint256)",
      "arguments": [
        "0"
      ],
      "transaction": {
        "type": "0x00",
        "from": "0x000ef5f21dc574226a06c76aae7060642a30eb74",
        "to": "0x82d58b15a6ada9bbaaad253cdfc5c97b5890811f",
        "gas": "0x149a0",
        "value": "0x0",
        "data": "0xfa24e2f50000000000000000000000000000000000000000000000000000000000000000",
        "nonce": "0x1d"
      },
      "additionalContracts": [],
      "isFixedGasLimit": false
    }
  ],
  "receipts": [
    {
      "transactionHash": "0x671766f1f0398d4c91a357bb8dfe5e8c0cb9eb5606716f1a2c042351e23650ef",
      "transactionIndex": "0x2",
      "blockHash": "0x97be1d966135beb99f6ec52dfe87e1eeaaf0732c9b48ef103075f20fdda001ee",
      "blockNumber": "0x399e093",
      "from": "0x000ef5F21dC574226A06C76AAE7060642A30eB74",
      "to": "0x82D58B15A6aDa9BbaAaD253CdfC5c97b5890811F",
      "cumulativeGasUsed": "0x1e15da",
      "gasUsed": "0x1d8633",
      "contractAddress": null,
      "logs": [
        {
          "address": "0x82D58B15A6aDa9BbaAaD253CdfC5c97b5890811F",
          "topics": [
            "0xddf252ad1be2c89b69c2b068fc378daa952ba7f163c4a11628f55a4df523b3ef",
            "0x0000000000000000000000000000000000000000000000000000000000000000",
            "0x00000000000000000000000082d58b15a6ada9bbaaad253cdfc5c97b5890811f",
            "0x0000000000000000000000000000000000000000000000000000000000000000"
          ],
          "data": "0x",
          "blockHash": "0x97be1d966135beb99f6ec52dfe87e1eeaaf0732c9b48ef103075f20fdda001ee",
          "blockNumber": "0x399e093",
          "transactionHash": "0x671766f1f0398d4c91a357bb8dfe5e8c0cb9eb5606716f1a2c042351e23650ef",
          "transactionIndex": "0x2",
          "logIndex": "0x1",
          "removed": false
        },
        {
          "address": "0x0cE63fF13f55d18d27E4558bDf6144EfFaf5803E",
          "topics": [
            "0xddf252ad1be2c89b69c2b068fc378daa952ba7f163c4a11628f55a4df523b3ef",
            "0x0000000000000000000000000000000000000000000000000000000000000000",
            "0x0000000000000000000000000ce63ff13f55d18d27e4558bdf6144effaf5803e"
          ],
          "data": "0x000000000000000000000000000000000000000000000001158e460913d00000",
          "blockHash": "0x97be1d966135beb99f6ec52dfe87e1eeaaf0732c9b48ef103075f20fdda001ee",
          "blockNumber": "0x399e093",
          "transactionHash": "0x671766f1f0398d4c91a357bb8dfe5e8c0cb9eb5606716f1a2c042351e23650ef",
          "transactionIndex": "0x2",
          "logIndex": "0x2",
          "removed": false
        },
        {
          "address": "0x0cE63fF13f55d18d27E4558bDf6144EfFaf5803E",
          "topics": [
            "0xddf252ad1be2c89b69c2b068fc378daa952ba7f163c4a11628f55a4df523b3ef",
            "0x0000000000000000000000000000000000000000000000000000000000000000",
            "0x0000000000000000000000000ce63ff13f55d18d27e4558bdf6144effaf5803e",
            "0x8000000000000000000000000000000000000000000000000000000000000001"
          ],
          "data": "0x",
          "blockHash": "0x97be1d966135beb99f6ec52dfe87e1eeaaf0732c9b48ef103075f20fdda001ee",
          "blockNumber": "0x399e093",
          "transactionHash": "0x671766f1f0398d4c91a357bb8dfe5e8c0cb9eb5606716f1a2c042351e23650ef",
          "transactionIndex": "0x2",
          "logIndex": "0x3",
          "removed": false
        },
        {
          "address": "0x0cE63fF13f55d18d27E4558bDf6144EfFaf5803E",
          "topics": [
            "0xddf252ad1be2c89b69c2b068fc378daa952ba7f163c4a11628f55a4df523b3ef",
            "0x0000000000000000000000000000000000000000000000000000000000000000",
            "0x0000000000000000000000000ce63ff13f55d18d27e4558bdf6144effaf5803e",
            "0x8000000000000000000000000000000000000000000000000000000000000002"
          ],
          "data": "0x",
          "blockHash": "0x97be1d966135beb99f6ec52dfe87e1eeaaf0732c9b48ef103075f20fdda001ee",
          "blockNumber": "0x399e093",
          "transactionHash": "0x671766f1f0398d4c91a357bb8dfe5e8c0cb9eb5606716f1a2c042351e23650ef",
          "transactionIndex": "0x2",
          "logIndex": "0x4",
          "removed": false
        },
        {
          "address": "0x0cE63fF13f55d18d27E4558bDf6144EfFaf5803E",
          "topics": [
            "0xddf252ad1be2c89b69c2b068fc378daa952ba7f163c4a11628f55a4df523b3ef",
            "0x0000000000000000000000000000000000000000000000000000000000000000",
            "0x0000000000000000000000000ce63ff13f55d18d27e4558bdf6144effaf5803e",
            "0x8000000000000000000000000000000000000000000000000000000000000003"
          ],
          "data": "0x",
          "blockHash": "0x97be1d966135beb99f6ec52dfe87e1eeaaf0732c9b48ef103075f20fdda001ee",
          "blockNumber": "0x399e093",
          "transactionHash": "0x671766f1f0398d4c91a357bb8dfe5e8c0cb9eb5606716f1a2c042351e23650ef",
          "transactionIndex": "0x2",
          "logIndex": "0x5",
          "removed": false
        },
        {
          "address": "0x0cE63fF13f55d18d27E4558bDf6144EfFaf5803E",
          "topics": [
            "0xddf252ad1be2c89b69c2b068fc378daa952ba7f163c4a11628f55a4df523b3ef",
            "0x0000000000000000000000000000000000000000000000000000000000000000",
            "0x0000000000000000000000000ce63ff13f55d18d27e4558bdf6144effaf5803e",
            "0x8000000000000000000000000000000000000000000000000000000000000004"
          ],
          "data": "0x",
          "blockHash": "0x97be1d966135beb99f6ec52dfe87e1eeaaf0732c9b48ef103075f20fdda001ee",
          "blockNumber": "0x399e093",
          "transactionHash": "0x671766f1f0398d4c91a357bb8dfe5e8c0cb9eb5606716f1a2c042351e23650ef",
          "transactionIndex": "0x2",
          "logIndex": "0x6",
          "removed": false
        },
        {
          "address": "0x0cE63fF13f55d18d27E4558bDf6144EfFaf5803E",
          "topics": [
            "0xddf252ad1be2c89b69c2b068fc378daa952ba7f163c4a11628f55a4df523b3ef",
            "0x0000000000000000000000000000000000000000000000000000000000000000",
            "0x0000000000000000000000000ce63ff13f55d18d27e4558bdf6144effaf5803e",
            "0x8000000000000000000000000000000000000000000000000000000000000005"
          ],
          "data": "0x",
          "blockHash": "0x97be1d966135beb99f6ec52dfe87e1eeaaf0732c9b48ef103075f20fdda001ee",
          "blockNumber": "0x399e093",
          "transactionHash": "0x671766f1f0398d4c91a357bb8dfe5e8c0cb9eb5606716f1a2c042351e23650ef",
          "transactionIndex": "0x2",
          "logIndex": "0x7",
          "removed": false
        },
        {
          "address": "0x0cE63fF13f55d18d27E4558bDf6144EfFaf5803E",
          "topics": [
            "0xddf252ad1be2c89b69c2b068fc378daa952ba7f163c4a11628f55a4df523b3ef",
            "0x0000000000000000000000000000000000000000000000000000000000000000",
            "0x0000000000000000000000000ce63ff13f55d18d27e4558bdf6144effaf5803e",
            "0x8000000000000000000000000000000000000000000000000000000000000006"
          ],
          "data": "0x",
          "blockHash": "0x97be1d966135beb99f6ec52dfe87e1eeaaf0732c9b48ef103075f20fdda001ee",
          "blockNumber": "0x399e093",
          "transactionHash": "0x671766f1f0398d4c91a357bb8dfe5e8c0cb9eb5606716f1a2c042351e23650ef",
          "transactionIndex": "0x2",
          "logIndex": "0x8",
          "removed": false
        },
        {
          "address": "0x0cE63fF13f55d18d27E4558bDf6144EfFaf5803E",
          "topics": [
            "0xddf252ad1be2c89b69c2b068fc378daa952ba7f163c4a11628f55a4df523b3ef",
            "0x0000000000000000000000000000000000000000000000000000000000000000",
            "0x0000000000000000000000000ce63ff13f55d18d27e4558bdf6144effaf5803e",
            "0x8000000000000000000000000000000000000000000000000000000000000007"
          ],
          "data": "0x",
          "blockHash": "0x97be1d966135beb99f6ec52dfe87e1eeaaf0732c9b48ef103075f20fdda001ee",
          "blockNumber": "0x399e093",
          "transactionHash": "0x671766f1f0398d4c91a357bb8dfe5e8c0cb9eb5606716f1a2c042351e23650ef",
          "transactionIndex": "0x2",
          "logIndex": "0x9",
          "removed": false
        },
        {
          "address": "0x0cE63fF13f55d18d27E4558bDf6144EfFaf5803E",
          "topics": [
            "0xddf252ad1be2c89b69c2b068fc378daa952ba7f163c4a11628f55a4df523b3ef",
            "0x0000000000000000000000000000000000000000000000000000000000000000",
            "0x0000000000000000000000000ce63ff13f55d18d27e4558bdf6144effaf5803e",
            "0x8000000000000000000000000000000000000000000000000000000000000008"
          ],
          "data": "0x",
          "blockHash": "0x97be1d966135beb99f6ec52dfe87e1eeaaf0732c9b48ef103075f20fdda001ee",
          "blockNumber": "0x399e093",
          "transactionHash": "0x671766f1f0398d4c91a357bb8dfe5e8c0cb9eb5606716f1a2c042351e23650ef",
          "transactionIndex": "0x2",
          "logIndex": "0xa",
          "removed": false
        },
        {
          "address": "0x0cE63fF13f55d18d27E4558bDf6144EfFaf5803E",
          "topics": [
            "0xddf252ad1be2c89b69c2b068fc378daa952ba7f163c4a11628f55a4df523b3ef",
            "0x0000000000000000000000000000000000000000000000000000000000000000",
            "0x0000000000000000000000000ce63ff13f55d18d27e4558bdf6144effaf5803e",
            "0x8000000000000000000000000000000000000000000000000000000000000009"
          ],
          "data": "0x",
          "blockHash": "0x97be1d966135beb99f6ec52dfe87e1eeaaf0732c9b48ef103075f20fdda001ee",
          "blockNumber": "0x399e093",
          "transactionHash": "0x671766f1f0398d4c91a357bb8dfe5e8c0cb9eb5606716f1a2c042351e23650ef",
          "transactionIndex": "0x2",
          "logIndex": "0xb",
          "removed": false
        },
        {
          "address": "0x0cE63fF13f55d18d27E4558bDf6144EfFaf5803E",
          "topics": [
            "0xddf252ad1be2c89b69c2b068fc378daa952ba7f163c4a11628f55a4df523b3ef",
            "0x0000000000000000000000000000000000000000000000000000000000000000",
            "0x0000000000000000000000000ce63ff13f55d18d27e4558bdf6144effaf5803e",
            "0x800000000000000000000000000000000000000000000000000000000000000a"
          ],
          "data": "0x",
          "blockHash": "0x97be1d966135beb99f6ec52dfe87e1eeaaf0732c9b48ef103075f20fdda001ee",
          "blockNumber": "0x399e093",
          "transactionHash": "0x671766f1f0398d4c91a357bb8dfe5e8c0cb9eb5606716f1a2c042351e23650ef",
          "transactionIndex": "0x2",
          "logIndex": "0xc",
          "removed": false
        },
        {
          "address": "0x0cE63fF13f55d18d27E4558bDf6144EfFaf5803E",
          "topics": [
            "0xddf252ad1be2c89b69c2b068fc378daa952ba7f163c4a11628f55a4df523b3ef",
            "0x0000000000000000000000000000000000000000000000000000000000000000",
            "0x0000000000000000000000000ce63ff13f55d18d27e4558bdf6144effaf5803e",
            "0x800000000000000000000000000000000000000000000000000000000000000b"
          ],
          "data": "0x",
          "blockHash": "0x97be1d966135beb99f6ec52dfe87e1eeaaf0732c9b48ef103075f20fdda001ee",
          "blockNumber": "0x399e093",
          "transactionHash": "0x671766f1f0398d4c91a357bb8dfe5e8c0cb9eb5606716f1a2c042351e23650ef",
          "transactionIndex": "0x2",
          "logIndex": "0xd",
          "removed": false
        },
        {
          "address": "0x0cE63fF13f55d18d27E4558bDf6144EfFaf5803E",
          "topics": [
            "0xddf252ad1be2c89b69c2b068fc378daa952ba7f163c4a11628f55a4df523b3ef",
            "0x0000000000000000000000000000000000000000000000000000000000000000",
            "0x0000000000000000000000000ce63ff13f55d18d27e4558bdf6144effaf5803e",
            "0x800000000000000000000000000000000000000000000000000000000000000c"
          ],
          "data": "0x",
          "blockHash": "0x97be1d966135beb99f6ec52dfe87e1eeaaf0732c9b48ef103075f20fdda001ee",
          "blockNumber": "0x399e093",
          "transactionHash": "0x671766f1f0398d4c91a357bb8dfe5e8c0cb9eb5606716f1a2c042351e23650ef",
          "transactionIndex": "0x2",
          "logIndex": "0xe",
          "removed": false
        },
        {
          "address": "0x0cE63fF13f55d18d27E4558bDf6144EfFaf5803E",
          "topics": [
            "0xddf252ad1be2c89b69c2b068fc378daa952ba7f163c4a11628f55a4df523b3ef",
            "0x0000000000000000000000000000000000000000000000000000000000000000",
            "0x0000000000000000000000000ce63ff13f55d18d27e4558bdf6144effaf5803e",
            "0x800000000000000000000000000000000000000000000000000000000000000d"
          ],
          "data": "0x",
          "blockHash": "0x97be1d966135beb99f6ec52dfe87e1eeaaf0732c9b48ef103075f20fdda001ee",
          "blockNumber": "0x399e093",
          "transactionHash": "0x671766f1f0398d4c91a357bb8dfe5e8c0cb9eb5606716f1a2c042351e23650ef",
          "transactionIndex": "0x2",
          "logIndex": "0xf",
          "removed": false
        },
        {
          "address": "0x0cE63fF13f55d18d27E4558bDf6144EfFaf5803E",
          "topics": [
            "0xddf252ad1be2c89b69c2b068fc378daa952ba7f163c4a11628f55a4df523b3ef",
            "0x0000000000000000000000000000000000000000000000000000000000000000",
            "0x0000000000000000000000000ce63ff13f55d18d27e4558bdf6144effaf5803e",
            "0x800000000000000000000000000000000000000000000000000000000000000e"
          ],
          "data": "0x",
          "blockHash": "0x97be1d966135beb99f6ec52dfe87e1eeaaf0732c9b48ef103075f20fdda001ee",
          "blockNumber": "0x399e093",
          "transactionHash": "0x671766f1f0398d4c91a357bb8dfe5e8c0cb9eb5606716f1a2c042351e23650ef",
          "transactionIndex": "0x2",
          "logIndex": "0x10",
          "removed": false
        },
        {
          "address": "0x0cE63fF13f55d18d27E4558bDf6144EfFaf5803E",
          "topics": [
            "0xddf252ad1be2c89b69c2b068fc378daa952ba7f163c4a11628f55a4df523b3ef",
            "0x0000000000000000000000000000000000000000000000000000000000000000",
            "0x0000000000000000000000000ce63ff13f55d18d27e4558bdf6144effaf5803e",
            "0x800000000000000000000000000000000000000000000000000000000000000f"
          ],
          "data": "0x",
          "blockHash": "0x97be1d966135beb99f6ec52dfe87e1eeaaf0732c9b48ef103075f20fdda001ee",
          "blockNumber": "0x399e093",
          "transactionHash": "0x671766f1f0398d4c91a357bb8dfe5e8c0cb9eb5606716f1a2c042351e23650ef",
          "transactionIndex": "0x2",
          "logIndex": "0x11",
          "removed": false
        },
        {
          "address": "0x0cE63fF13f55d18d27E4558bDf6144EfFaf5803E",
          "topics": [
            "0xddf252ad1be2c89b69c2b068fc378daa952ba7f163c4a11628f55a4df523b3ef",
            "0x0000000000000000000000000000000000000000000000000000000000000000",
            "0x0000000000000000000000000ce63ff13f55d18d27e4558bdf6144effaf5803e",
            "0x8000000000000000000000000000000000000000000000000000000000000010"
          ],
          "data": "0x",
          "blockHash": "0x97be1d966135beb99f6ec52dfe87e1eeaaf0732c9b48ef103075f20fdda001ee",
          "blockNumber": "0x399e093",
          "transactionHash": "0x671766f1f0398d4c91a357bb8dfe5e8c0cb9eb5606716f1a2c042351e23650ef",
          "transactionIndex": "0x2",
          "logIndex": "0x12",
          "removed": false
        },
        {
          "address": "0x0cE63fF13f55d18d27E4558bDf6144EfFaf5803E",
          "topics": [
            "0xddf252ad1be2c89b69c2b068fc378daa952ba7f163c4a11628f55a4df523b3ef",
            "0x0000000000000000000000000000000000000000000000000000000000000000",
            "0x0000000000000000000000000ce63ff13f55d18d27e4558bdf6144effaf5803e",
            "0x8000000000000000000000000000000000000000000000000000000000000011"
          ],
          "data": "0x",
          "blockHash": "0x97be1d966135beb99f6ec52dfe87e1eeaaf0732c9b48ef103075f20fdda001ee",
          "blockNumber": "0x399e093",
          "transactionHash": "0x671766f1f0398d4c91a357bb8dfe5e8c0cb9eb5606716f1a2c042351e23650ef",
          "transactionIndex": "0x2",
          "logIndex": "0x13",
          "removed": false
        },
        {
          "address": "0x0cE63fF13f55d18d27E4558bDf6144EfFaf5803E",
          "topics": [
            "0xddf252ad1be2c89b69c2b068fc378daa952ba7f163c4a11628f55a4df523b3ef",
            "0x0000000000000000000000000000000000000000000000000000000000000000",
            "0x0000000000000000000000000ce63ff13f55d18d27e4558bdf6144effaf5803e",
            "0x8000000000000000000000000000000000000000000000000000000000000012"
          ],
          "data": "0x",
          "blockHash": "0x97be1d966135beb99f6ec52dfe87e1eeaaf0732c9b48ef103075f20fdda001ee",
          "blockNumber": "0x399e093",
          "transactionHash": "0x671766f1f0398d4c91a357bb8dfe5e8c0cb9eb5606716f1a2c042351e23650ef",
          "transactionIndex": "0x2",
          "logIndex": "0x14",
          "removed": false
        },
        {
          "address": "0x0cE63fF13f55d18d27E4558bDf6144EfFaf5803E",
          "topics": [
            "0xddf252ad1be2c89b69c2b068fc378daa952ba7f163c4a11628f55a4df523b3ef",
            "0x0000000000000000000000000000000000000000000000000000000000000000",
            "0x0000000000000000000000000ce63ff13f55d18d27e4558bdf6144effaf5803e",
            "0x8000000000000000000000000000000000000000000000000000000000000013"
          ],
          "data": "0x",
          "blockHash": "0x97be1d966135beb99f6ec52dfe87e1eeaaf0732c9b48ef103075f20fdda001ee",
          "blockNumber": "0x399e093",
          "transactionHash": "0x671766f1f0398d4c91a357bb8dfe5e8c0cb9eb5606716f1a2c042351e23650ef",
          "transactionIndex": "0x2",
          "logIndex": "0x15",
          "removed": false
        },
        {
          "address": "0x0cE63fF13f55d18d27E4558bDf6144EfFaf5803E",
          "topics": [
            "0xddf252ad1be2c89b69c2b068fc378daa952ba7f163c4a11628f55a4df523b3ef",
            "0x0000000000000000000000000000000000000000000000000000000000000000",
            "0x0000000000000000000000000ce63ff13f55d18d27e4558bdf6144effaf5803e",
            "0x8000000000000000000000000000000000000000000000000000000000000014"
          ],
          "data": "0x",
          "blockHash": "0x97be1d966135beb99f6ec52dfe87e1eeaaf0732c9b48ef103075f20fdda001ee",
          "blockNumber": "0x399e093",
          "transactionHash": "0x671766f1f0398d4c91a357bb8dfe5e8c0cb9eb5606716f1a2c042351e23650ef",
          "transactionIndex": "0x2",
          "logIndex": "0x16",
          "removed": false
        },
        {
          "address": "0x0cE63fF13f55d18d27E4558bDf6144EfFaf5803E",
          "topics": [
            "0xc7f505b2f371ae2175ee4913f4499e1f2633a7b5936321eed1cdaeb6115181d2"
          ],
          "data": "0x0000000000000000000000000000000000000000000000000000000000000001",
          "blockHash": "0x97be1d966135beb99f6ec52dfe87e1eeaaf0732c9b48ef103075f20fdda001ee",
          "blockNumber": "0x399e093",
          "transactionHash": "0x671766f1f0398d4c91a357bb8dfe5e8c0cb9eb5606716f1a2c042351e23650ef",
          "transactionIndex": "0x2",
          "logIndex": "0x17",
          "removed": false
        },
        {
          "address": "0x707Bf9a05606994cc8d3c3305B1AdC713C244e41",
          "topics": [
            "0x07fba7bba1191da7ee1155dcfa0030701c9c9a9cc34a93b991fc6fd0c9268d8f"
          ],
          "data": "0x0000000000000000000000000ce63ff13f55d18d27e4558bdf6144effaf5803e0000000000000000000000004caf59c33b4162acd26e6c910b8849295df90278000000000000000000000000000000000000000000000000000000000000003300000000000000000000000082d58b15a6ada9bbaaad253cdfc5c97b5890811f00000000000000000000000000000000000000000000000000000000000000000000000000000000000000000000000000000000000000000000000000000000",
          "blockHash": "0x97be1d966135beb99f6ec52dfe87e1eeaaf0732c9b48ef103075f20fdda001ee",
          "blockNumber": "0x399e093",
          "transactionHash": "0x671766f1f0398d4c91a357bb8dfe5e8c0cb9eb5606716f1a2c042351e23650ef",
          "transactionIndex": "0x2",
          "logIndex": "0x18",
          "removed": false
        },
        {
          "address": "0x629540038c8f7b46356c442D22E0EAF96fEC151c",
          "topics": [
            "0x1cf3b03a6cf19fa2baba4df148e9dcabedea7f8a5c07840e207e5c089be95d3e",
            "0x00000000000000000000000015906379703940bc51a5881ad1a5fc481ebc8bb1"
          ],
          "data": "0x",
          "blockHash": "0x97be1d966135beb99f6ec52dfe87e1eeaaf0732c9b48ef103075f20fdda001ee",
          "blockNumber": "0x399e093",
          "transactionHash": "0x671766f1f0398d4c91a357bb8dfe5e8c0cb9eb5606716f1a2c042351e23650ef",
          "transactionIndex": "0x2",
          "logIndex": "0x19",
          "removed": false
        },
        {
          "address": "0x629540038c8f7b46356c442D22E0EAF96fEC151c",
          "topics": [
            "0xc7f505b2f371ae2175ee4913f4499e1f2633a7b5936321eed1cdaeb6115181d2"
          ],
          "data": "0x0000000000000000000000000000000000000000000000000000000000000001",
          "blockHash": "0x97be1d966135beb99f6ec52dfe87e1eeaaf0732c9b48ef103075f20fdda001ee",
          "blockNumber": "0x399e093",
          "transactionHash": "0x671766f1f0398d4c91a357bb8dfe5e8c0cb9eb5606716f1a2c042351e23650ef",
          "transactionIndex": "0x2",
          "logIndex": "0x1a",
          "removed": false
        },
        {
          "address": "0x82D58B15A6aDa9BbaAaD253CdfC5c97b5890811F",
          "topics": [
            "0x9850c01544aa89bb27d98e03fbe924a7d62b85f90dfb82ad4cdff781c9a0fd76",
            "0x0000000000000000000000000000000000000000000000000000000000000000",
            "0x0000000000000000000000000ce63ff13f55d18d27e4558bdf6144effaf5803e",
            "0x000000000000000000000000629540038c8f7b46356c442d22e0eaf96fec151c"
          ],
          "data": "0x",
          "blockHash": "0x97be1d966135beb99f6ec52dfe87e1eeaaf0732c9b48ef103075f20fdda001ee",
          "blockNumber": "0x399e093",
          "transactionHash": "0x671766f1f0398d4c91a357bb8dfe5e8c0cb9eb5606716f1a2c042351e23650ef",
          "transactionIndex": "0x2",
          "logIndex": "0x1b",
          "removed": false
        }
      ],
      "status": "0x1",
      "logsBloom": "0x002101004002080000000010000000000000000080000000000000e000000000000400004000000001000000400800208000400000120100004008000000001203000000000000000800000a001000000800100100000000000000040000000800000000020000010000000000000800000000800000000000000010112000000000400000000000280800040004080000000000004080400000000000000000000000800000042800000000000004000000402001000000000000000010400080001002000008080004800000006000000800000404000000800100000070040000001000020000010100000201800000002000080001700000002002800000"
    },
    {
      "transactionHash": "0x5f3450347033f27fde2b5518018924561a96a160ee851e3325e2040ec367a154",
      "transactionIndex": "0x3",
      "blockHash": "0x97be1d966135beb99f6ec52dfe87e1eeaaf0732c9b48ef103075f20fdda001ee",
      "blockNumber": "0x399e093",
      "from": "0x000ef5F21dC574226A06C76AAE7060642A30eB74",
      "to": "0x82D58B15A6aDa9BbaAaD253CdfC5c97b5890811F",
      "cumulativeGasUsed": "0x1ed7ff",
      "gasUsed": "0xc225",
      "contractAddress": null,
      "logs": [],
      "status": "0x1",
      "logsBloom": "0x00000000000000000000000000000000000000000000000000000000000000000000000000000000000000000000000000000000000000000000000000000000000000000000000000000000000000000000000000000000000000000000000000000000000000000000000000000000000000000000000000000000000000000000000000000000000000000000000000000000000000000000000000000000000000000000000000000000000000000000000000000000000000000000000000000000000000000000000000000000000000000000000000000000000000000000000000000000000000000000000000000000000000000000000000000000"
    }
  ],
  "libraries": [],
  "pending": [],
  "returns": {},
  "timestamp": 1709381024,
  "chain": 51,
  "multi": false,
  "commit": "f8400e2"
}