{
  "transactions": [
    {
      "hash": "0xb495f1d2cc10dac76bea8144bb6771d407819e3666412b54fca98c581730029d",
      "transactionType": "CALL",
      "contractName": null,
      "contractAddress": "0xF9ae0aE81827c22dBB1Ef958A5EAec7f47040603",
      "function": "mintProject(string,string,uint256)",
      "arguments": [
        "\"PROJECT2\"",
        "\"PRJ2\"",
        "100000000000000000000"
      ],
      "transaction": {
        "type": "0x00",
        "from": "0x000ef5f21dc574226a06c76aae7060642a30eb74",
        "to": "0xf9ae0ae81827c22dbb1ef958a5eaec7f47040603",
        "gas": "0x11a141",
        "value": "0x0",
        "data": "0xe253f039000000000000000000000000000000000000000000000000000000000000006000000000000000000000000000000000000000000000000000000000000000a00000000000000000000000000000000000000000000000056bc75e2d63100000000000000000000000000000000000000000000000000000000000000000000850524f4a45435432000000000000000000000000000000000000000000000000000000000000000000000000000000000000000000000000000000000000000450524a3200000000000000000000000000000000000000000000000000000000",
        "nonce": "0x14"
      },
      "additionalContracts": [
        {
          "transactionType": "CREATE2",
          "address": "0x39A865541302E577a154e19419B4861b47b71a55",
          "initCode": "0x3d60ad80600a3d3981f3363d3d373d3d3d363d7324730c8387c11e6031f692bf0b14000d932717665af43d82803e903d91602b57fd5bf300000000000000000000000000000000000000000000000000000000000000000000000000000000000000000000000000000000000000000000000000000033000000000000000000000000f9ae0ae81827c22dbb1ef958a5eaec7f470406030000000000000000000000000000000000000000000000000000000000000001"
        },
        {
          "transactionType": "CREATE",
          "address": "0x77d82B5D7dEEa81e83A2ba2dE46Ed1ba723D5853",
          "initCode": "0x60a06040526040516105e53803806105e583398101604081905261002291610387565b61002c828261003e565b506001600160a01b031660805261047e565b610047826100fe565b6040516001600160a01b038316907f1cf3b03a6cf19fa2baba4df148e9dcabedea7f8a5c07840e207e5c089be95d3e90600090a28051156100f2576100ed826001600160a01b0316635c60da1b6040518163ffffffff1660e01b8152600401602060405180830381865afa1580156100c3573d6000803e3d6000fd5b505050506040513d601f19601f820116820180604052508101906100e79190610447565b82610211565b505050565b6100fa610288565b5050565b806001600160a01b03163b60000361013957604051631933b43b60e21b81526001600160a01b03821660048201526024015b60405180910390fd5b807fa3f0ad74e5423aebfd80d3ef4346578335a9a72aeaee59ff6cb3582b35133d5080546001600160a01b0319166001600160a01b0392831617905560408051635c60da1b60e01b81529051600092841691635c60da1b9160048083019260209291908290030181865afa1580156101b5573d6000803e3d6000fd5b505050506040513d601f19601f820116820180604052508101906101d99190610447565b9050806001600160a01b03163b6000036100fa57604051634c9c8ce360e01b81526001600160a01b0382166004820152602401610130565b6060600080846001600160a01b03168460405161022e9190610462565b600060405180830381855af49150503d8060008114610269576040519150601f19603f3d011682016040523d82523d6000602084013e61026e565b606091505b50909250905061027f8583836102a9565b95945050505050565b34156102a75760405163b398979f60e01b815260040160405180910390fd5b565b6060826102be576102b982610308565b610301565b81511580156102d557506001600160a01b0384163b155b156102fe57604051639996b31560e01b81526001600160a01b0385166004820152602401610130565b50805b9392505050565b8051156103185780518082602001fd5b604051630a12f52160e11b815260040160405180910390fd5b80516001600160a01b038116811461034857600080fd5b919050565b634e487b7160e01b600052604160045260246000fd5b60005b8381101561037e578181015183820152602001610366565b50506000910152565b6000806040838503121561039a57600080fd5b6103a383610331565b60208401519092506001600160401b03808211156103c057600080fd5b818501915085601f8301126103d457600080fd5b8151818111156103e6576103e661034d565b604051601f8201601f19908116603f0116810190838211818310171561040e5761040e61034d565b8160405282815288602084870101111561042757600080fd5b610438836020830160208801610363565b80955050505050509250929050565b60006020828403121561045957600080fd5b61030182610331565b60008251610474818460208701610363565b9190910192915050565b60805161014d61049860003960006024015261014d6000f3fe608060405261000c61000e565b005b61001e610019610020565b6100b6565b565b60007f000000000000000000000000000000000000000000000000000000000000000073ffffffffffffffffffffffffffffffffffffffff16635c60da1b6040518163ffffffff1660e01b8152600401602060405180830381865afa15801561008d573d6000803e3d6000fd5b505050506040513d601f19601f820116820180604052508101906100b191906100da565b905090565b3660008037600080366000845af43d6000803e8080156100d5573d6000f35b3d6000fd5b6000602082840312156100ec57600080fd5b815173ffffffffffffffffffffffffffffffffffffffff8116811461011057600080fd5b939250505056fea2646970667358221220eda9285a15ab1794c7c841309fd0880e86b270ecc6a991e031826bddbf23732264736f6c634300081700330000000000000000000000009f0a79c5a1fb5f7e2221ddda85362f97ff847f6600000000000000000000000000000000000000000000000000000000000000400000000000000000000000000000000000000000000000000000000000000144db0e454400000000000000000000000000000000000000000000000000000000000000c0000000000000000000000000000000000000000000000000000000000000010000000000000000000000000026f1b67f7f49626e998d5346db0ddf5117bc2753000000000000000000000000f9ae0ae81827c22dbb1ef958a5eaec7f470406030000000000000000000000000000000000000000000000056bc75e2d6310000000000000000000000000000039a865541302e577a154e19419b4861b47b71a55000000000000000000000000000000000000000000000000000000000000000850524f4a45435432000000000000000000000000000000000000000000000000000000000000000000000000000000000000000000000000000000000000000450524a320000000000000000000000000000000000000000000000000000000000000000000000000000000000000000000000000000000000000000"
        }
      ],
      "isFixedGasLimit": false
    },
    {
      "hash": "0x570b771ab7e4dc4375ca1eec842f9d3f416df51a35a1ab5754af58666aefa026",
      "transactionType": "CALL",
      "contractName": null,
      "contractAddress": "0xF9ae0aE81827c22dBB1Ef958A5EAec7f47040603",
      "function": "setRentalAvailable(uint256)",
      "arguments": [
        "1"
      ],
      "transaction": {
        "type": "0x00",
        "from": "0x000ef5f21dc574226a06c76aae7060642a30eb74",
        "to": "0xf9ae0ae81827c22dbb1ef958a5eaec7f47040603",
        "gas": "0x15d15",
        "value": "0x0",
        "data": "0xfa24e2f50000000000000000000000000000000000000000000000000000000000000001",
        "nonce": "0x15"
      },
      "additionalContracts": [],
      "isFixedGasLimit": false
    }
  ],
  "receipts": [
    {
      "transactionHash": "0xb495f1d2cc10dac76bea8144bb6771d407819e3666412b54fca98c581730029d",
      "transactionIndex": "0x2",
      "blockHash": "0x7984ab93dc6c8ef489e76e312e2fb3180fdb7637bf2012a200a0be9fc0074f11",
      "blockNumber": "0x399dcc5",
      "from": "0x000ef5F21dC574226A06C76AAE7060642A30eB74",
      "to": "0xF9ae0aE81827c22dBB1Ef958A5EAec7f47040603",
      "cumulativeGasUsed": "0xc766ce",
      "gasUsed": "0xc2f18",
      "contractAddress": null,
      "logs": [
        {
          "address": "0xF9ae0aE81827c22dBB1Ef958A5EAec7f47040603",
          "topics": [
            "0xddf252ad1be2c89b69c2b068fc378daa952ba7f163c4a11628f55a4df523b3ef",
            "0x0000000000000000000000000000000000000000000000000000000000000000",
            "0x000000000000000000000000f9ae0ae81827c22dbb1ef958a5eaec7f47040603",
            "0x0000000000000000000000000000000000000000000000000000000000000001"
          ],
          "data": "0x",
          "blockHash": "0x7984ab93dc6c8ef489e76e312e2fb3180fdb7637bf2012a200a0be9fc0074f11",
          "blockNumber": "0x399dcc5",
          "transactionHash": "0xb495f1d2cc10dac76bea8144bb6771d407819e3666412b54fca98c581730029d",
          "transactionIndex": "0x2",
          "logIndex": "0x3d",
          "removed": false
        },
        {
          "address": "0x39A865541302E577a154e19419B4861b47b71a55",
          "topics": [
            "0xddf252ad1be2c89b69c2b068fc378daa952ba7f163c4a11628f55a4df523b3ef",
            "0x0000000000000000000000000000000000000000000000000000000000000000",
            "0x00000000000000000000000039a865541302e577a154e19419b4861b47b71a55"
          ],
          "data": "0x0000000000000000000000000000000000000000000000000000000000000008",
          "blockHash": "0x7984ab93dc6c8ef489e76e312e2fb3180fdb7637bf2012a200a0be9fc0074f11",
          "blockNumber": "0x399dcc5",
          "transactionHash": "0xb495f1d2cc10dac76bea8144bb6771d407819e3666412b54fca98c581730029d",
          "transactionIndex": "0x2",
          "logIndex": "0x3e",
          "removed": false
        },
        {
          "address": "0x39A865541302E577a154e19419B4861b47b71a55",
          "topics": [
            "0xc7f505b2f371ae2175ee4913f4499e1f2633a7b5936321eed1cdaeb6115181d2"
          ],
          "data": "0x0000000000000000000000000000000000000000000000000000000000000001",
          "blockHash": "0x7984ab93dc6c8ef489e76e312e2fb3180fdb7637bf2012a200a0be9fc0074f11",
          "blockNumber": "0x399dcc5",
          "transactionHash": "0xb495f1d2cc10dac76bea8144bb6771d407819e3666412b54fca98c581730029d",
          "transactionIndex": "0x2",
          "logIndex": "0x3f",
          "removed": false
        },
        {
          "address": "0x22599F1d29F97F66ECdAAfD03dc8bE60ac45575D",
          "topics": [
            "0x07fba7bba1191da7ee1155dcfa0030701c9c9a9cc34a93b991fc6fd0c9268d8f"
          ],
          "data": "0x00000000000000000000000039a865541302e577a154e19419b4861b47b71a5500000000000000000000000024730c8387c11e6031f692bf0b14000d932717660000000000000000000000000000000000000000000000000000000000000033000000000000000000000000f9ae0ae81827c22dbb1ef958a5eaec7f4704060300000000000000000000000000000000000000000000000000000000000000010000000000000000000000000000000000000000000000000000000000000000",
          "blockHash": "0x7984ab93dc6c8ef489e76e312e2fb3180fdb7637bf2012a200a0be9fc0074f11",
          "blockNumber": "0x399dcc5",
          "transactionHash": "0xb495f1d2cc10dac76bea8144bb6771d407819e3666412b54fca98c581730029d",
          "transactionIndex": "0x2",
          "logIndex": "0x40",
          "removed": false
        },
        {
          "address": "0x77d82B5D7dEEa81e83A2ba2dE46Ed1ba723D5853",
          "topics": [
            "0x1cf3b03a6cf19fa2baba4df148e9dcabedea7f8a5c07840e207e5c089be95d3e",
            "0x0000000000000000000000009f0a79c5a1fb5f7e2221ddda85362f97ff847f66"
          ],
          "data": "0x",
          "blockHash": "0x7984ab93dc6c8ef489e76e312e2fb3180fdb7637bf2012a200a0be9fc0074f11",
          "blockNumber": "0x399dcc5",
          "transactionHash": "0xb495f1d2cc10dac76bea8144bb6771d407819e3666412b54fca98c581730029d",
          "transactionIndex": "0x2",
          "logIndex": "0x41",
          "removed": false
        },
        {
          "address": "0x77d82B5D7dEEa81e83A2ba2dE46Ed1ba723D5853",
          "topics": [
            "0xc7f505b2f371ae2175ee4913f4499e1f2633a7b5936321eed1cdaeb6115181d2"
          ],
          "data": "0x0000000000000000000000000000000000000000000000000000000000000001",
          "blockHash": "0x7984ab93dc6c8ef489e76e312e2fb3180fdb7637bf2012a200a0be9fc0074f11",
          "blockNumber": "0x399dcc5",
          "transactionHash": "0xb495f1d2cc10dac76bea8144bb6771d407819e3666412b54fca98c581730029d",
          "transactionIndex": "0x2",
          "logIndex": "0x42",
          "removed": false
        },
        {
          "address": "0xF9ae0aE81827c22dBB1Ef958A5EAec7f47040603",
          "topics": [
            "0x9850c01544aa89bb27d98e03fbe924a7d62b85f90dfb82ad4cdff781c9a0fd76",
            "0x0000000000000000000000000000000000000000000000000000000000000001",
            "0x00000000000000000000000039a865541302e577a154e19419b4861b47b71a55",
            "0x00000000000000000000000077d82b5d7deea81e83a2ba2de46ed1ba723d5853"
          ],
          "data": "0x",
          "blockHash": "0x7984ab93dc6c8ef489e76e312e2fb3180fdb7637bf2012a200a0be9fc0074f11",
          "blockNumber": "0x399dcc5",
          "transactionHash": "0xb495f1d2cc10dac76bea8144bb6771d407819e3666412b54fca98c581730029d",
          "transactionIndex": "0x2",
          "logIndex": "0x43",
          "removed": false
        }
      ],
      "status": "0x1",
      "logsBloom": "0x00000000000000000000000000000000000000000000000001000000000008000000000000001020000000000000000000000000000000000000001010040012000000000000000000000008001000000010005000040000000000000000000000000000020000000000000000200800000000000000040000000010000000000000000000001000000800000000080000000000000080000000000020004000000000000000000000000000000000000000000080200000000000000000000000000002000000000004000000802000002000800084000000800000000060002000001000000000000000000000000000000000000000000000012080010000"
    },
    {
      "transactionHash": "0x570b771ab7e4dc4375ca1eec842f9d3f416df51a35a1ab5754af58666aefa026",
      "transactionIndex": "0x3",
      "blockHash": "0x7984ab93dc6c8ef489e76e312e2fb3180fdb7637bf2012a200a0be9fc0074f11",
      "blockNumber": "0x399dcc5",
      "from": "0x000ef5F21dC574226A06C76AAE7060642A30eB74",
      "to": "0xF9ae0aE81827c22dBB1Ef958A5EAec7f47040603",
      "cumulativeGasUsed": "0xc82933",
      "gasUsed": "0xc265",
      "contractAddress": null,
      "logs": [],
      "status": "0x1",
      "logsBloom": "0x00000000000000000000000000000000000000000000000000000000000000000000000000000000000000000000000000000000000000000000000000000000000000000000000000000000000000000000000000000000000000000000000000000000000000000000000000000000000000000000000000000000000000000000000000000000000000000000000000000000000000000000000000000000000000000000000000000000000000000000000000000000000000000000000000000000000000000000000000000000000000000000000000000000000000000000000000000000000000000000000000000000000000000000000000000000"
    }
  ],
  "libraries": [],
  "pending": [],
  "returns": {},
  "timestamp": 1709374849,
  "chain": 51,
  "multi": false,
  "commit": "f8400e2"
}