{
  "transactions": [
    {
      "hash": "0xd2889349d2487f4e0e31c166875914b44e9c8262e9dc9336e1358b28f3f29005",
      "transactionType": "CALL",
      "contractName": null,
      "contractAddress": "0xbA397eFEF3914aB025F7f5706fADE61f240A9EbC",
      "function": "mint(address,uint256)",
      "arguments": [
        "0x000ef5F21dC574226A06C76AAE7060642A30eB74",
        "2000000000000000000000000000000"
      ],
      "transaction": {
        "type": "0x00",
        "from": "0x000ef5f21dc574226a06c76aae7060642a30eb74",
        "to": "0xba397efef3914ab025f7f5706fade61f240a9ebc",
        "gas": "0xb880",
        "value": "0x0",
        "data": "0x40c10f19000000000000000000000000000ef5f21dc574226a06c76aae7060642a30eb7400000000000000000000000000000000000000193e5939a08ce9dbd480000000",
        "nonce": "0x1e"
      },
      "additionalContracts": [],
      "isFixedGasLimit": false
    }
  ],
  "receipts": [
    {
      "transactionHash": "0xd2889349d2487f4e0e31c166875914b44e9c8262e9dc9336e1358b28f3f29005",
      "transactionIndex": "0x2",
      "blockHash": "0x9d473b4fc1f60290624c1ba08d85e7ae5c50ca1cb6492cbf3f0b966942392d31",
      "blockNumber": "0x399e09a",
      "from": "0x000ef5F21dC574226A06C76AAE7060642A30eB74",
      "to": "0xbA397eFEF3914aB025F7f5706fADE61f240A9EbC",
      "cumulativeGasUsed": "0xbd0588",
      "gasUsed": "0x9288",
      "contractAddress": null,
      "logs": [
        {
          "address": "0xbA397eFEF3914aB025F7f5706fADE61f240A9EbC",
          "topics": [
            "0xddf252ad1be2c89b69c2b068fc378daa952ba7f163c4a11628f55a4df523b3ef",
            "0x0000000000000000000000000000000000000000000000000000000000000000",
            "0x000000000000000000000000000ef5f21dc574226a06c76aae7060642a30eb74"
          ],
          "data": "0x00000000000000000000000000000000000000193e5939a08ce9dbd480000000",
          "blockHash": "0x9d473b4fc1f60290624c1ba08d85e7ae5c50ca1cb6492cbf3f0b966942392d31",
          "blockNumber": "0x399e09a",
          "transactionHash": "0xd2889349d2487f4e0e31c166875914b44e9c8262e9dc9336e1358b28f3f29005",
          "transactionIndex": "0x2",
          "logIndex": "0x3d",
          "removed": false
        }
      ],
      "status": "0x1",
      "logsBloom": "0x00000000000000000000000000000000000000000000000000000000000000000000000000030000000000000000000000000000000000000000000020000000000000000000000000000008004000000000000000000000000000000000000000000000020000000000000400000800000000000000000000000010000000000000000000000000000000000000000000000000000000000000000000000000000000000000000000000000000000000000000000000000000000000000000000000002000000000000000000000000000000000000000000000000040020000000000000000000000000000000000000000000000000000000000000000000"
    }
  ],
  "libraries": [],
  "pending": [],
  "returns": {},
  "timestamp": 1709381070,
  "chain": 51,
  "multi": false,
  "commit": "f8400e2"
}